{
  "contractName": "PetAdoption",
  "abi": [
    {
      "anonymous": false,
      "inputs": [
        {
          "indexed": true,
          "internalType": "address",
          "name": "owner",
          "type": "address"
        },
        {
          "indexed": false,
          "internalType": "string",
          "name": "name",
          "type": "string"
        },
        {
          "indexed": false,
          "internalType": "string",
          "name": "details",
          "type": "string"
        },
        {
          "indexed": false,
          "internalType": "string",
          "name": "age",
          "type": "string"
        },
        {
          "indexed": false,
          "internalType": "string",
          "name": "petAddress",
          "type": "string"
        },
        {
          "indexed": false,
          "internalType": "string",
          "name": "species",
          "type": "string"
        }
      ],
      "name": "PetAdopted",
      "type": "event"
    },
    {
      "inputs": [
        {
          "internalType": "address",
          "name": "",
          "type": "address"
        }
      ],
      "name": "pets",
      "outputs": [
        {
          "internalType": "string",
          "name": "name",
          "type": "string"
        },
        {
          "internalType": "string",
          "name": "details",
          "type": "string"
        },
        {
          "internalType": "string",
          "name": "age",
          "type": "string"
        },
        {
          "internalType": "string",
          "name": "petAddress",
          "type": "string"
        },
        {
          "internalType": "string",
          "name": "species",
          "type": "string"
        }
      ],
      "stateMutability": "view",
      "type": "function"
    },
    {
      "inputs": [
        {
          "internalType": "string",
          "name": "_name",
          "type": "string"
        },
        {
          "internalType": "string",
          "name": "_details",
          "type": "string"
        },
        {
          "internalType": "string",
          "name": "_age",
          "type": "string"
        },
        {
          "internalType": "string",
          "name": "_petAddress",
          "type": "string"
        },
        {
          "internalType": "string",
          "name": "_species",
          "type": "string"
        }
      ],
      "name": "adoptPet",
      "outputs": [],
      "stateMutability": "nonpayable",
      "type": "function"
    },
    {
      "inputs": [
        {
          "internalType": "address",
          "name": "owner",
          "type": "address"
        }
      ],
      "name": "getPet",
      "outputs": [
        {
          "internalType": "string",
          "name": "",
          "type": "string"
        },
        {
          "internalType": "string",
          "name": "",
          "type": "string"
        },
        {
          "internalType": "string",
          "name": "",
          "type": "string"
        },
        {
          "internalType": "string",
          "name": "",
          "type": "string"
        },
        {
          "internalType": "string",
          "name": "",
          "type": "string"
        }
      ],
      "stateMutability": "view",
      "type": "function"
    }
  ],
  "bytecode": "0x608060405234801561000f575f80fd5b50610edd8061001d5f395ff3fe608060405234801561000f575f80fd5b506004361061003f575f3560e01c8063088f0fb914610043578063eee2457014610077578063ff5d2bab146100ab575b5f80fd5b61005d6004803603810190610058919061087d565b6100c7565b60405161006e959493929190610932565b60405180910390f35b610091600480360381019061008c919061087d565b610396565b6040516100a2959493929190610932565b60405180910390f35b6100c560048036038101906100c09190610ad2565b6106e3565b005b5f602052805f5260405f205f91509050805f0180546100e590610c02565b80601f016020809104026020016040519081016040528092919081815260200182805461011190610c02565b801561015c5780601f106101335761010080835404028352916020019161015c565b820191905f5260205f20905b81548152906001019060200180831161013f57829003601f168201915b50505050509080600101805461017190610c02565b80601f016020809104026020016040519081016040528092919081815260200182805461019d90610c02565b80156101e85780601f106101bf576101008083540402835291602001916101e8565b820191905f5260205f20905b8154815290600101906020018083116101cb57829003601f168201915b5050505050908060020180546101fd90610c02565b80601f016020809104026020016040519081016040528092919081815260200182805461022990610c02565b80156102745780601f1061024b57610100808354040283529160200191610274565b820191905f5260205f20905b81548152906001019060200180831161025757829003601f168201915b50505050509080600301805461028990610c02565b80601f01602080910402602001604051908101604052809291908181526020018280546102b590610c02565b80156103005780601f106102d757610100808354040283529160200191610300565b820191905f5260205f20905b8154815290600101906020018083116102e357829003601f168201915b50505050509080600401805461031590610c02565b80601f016020809104026020016040519081016040528092919081815260200182805461034190610c02565b801561038c5780601f106103635761010080835404028352916020019161038c565b820191905f5260205f20905b81548152906001019060200180831161036f57829003601f168201915b5050505050905085565b60608060608060605f805f8873ffffffffffffffffffffffffffffffffffffffff1673ffffffffffffffffffffffffffffffffffffffff1681526020019081526020015f206040518060a00160405290815f820180546103f590610c02565b80601f016020809104026020016040519081016040528092919081815260200182805461042190610c02565b801561046c5780601f106104435761010080835404028352916020019161046c565b820191905f5260205f20905b81548152906001019060200180831161044f57829003601f168201915b5050505050815260200160018201805461048590610c02565b80601f01602080910402602001604051908101604052809291908181526020018280546104b190610c02565b80156104fc5780601f106104d3576101008083540402835291602001916104fc565b820191905f5260205f20905b8154815290600101906020018083116104df57829003601f168201915b5050505050815260200160028201805461051590610c02565b80601f016020809104026020016040519081016040528092919081815260200182805461054190610c02565b801561058c5780601f106105635761010080835404028352916020019161058c565b820191905f5260205f20905b81548152906001019060200180831161056f57829003601f168201915b505050505081526020016003820180546105a590610c02565b80601f01602080910402602001604051908101604052809291908181526020018280546105d190610c02565b801561061c5780601f106105f35761010080835404028352916020019161061c565b820191905f5260205f20905b8154815290600101906020018083116105ff57829003601f168201915b5050505050815260200160048201805461063590610c02565b80601f016020809104026020016040519081016040528092919081815260200182805461066190610c02565b80156106ac5780601f10610683576101008083540402835291602001916106ac565b820191905f5260205f20905b81548152906001019060200180831161068f57829003601f168201915b5050505050815250509050805f01518160200151826040015183606001518460800151955095509550955095505091939590929450565b6040518060a00160405280868152602001858152602001848152602001838152602001828152505f803373ffffffffffffffffffffffffffffffffffffffff1673ffffffffffffffffffffffffffffffffffffffff1681526020019081526020015f205f820151815f0190816107599190610dd8565b50602082015181600101908161076f9190610dd8565b5060408201518160020190816107859190610dd8565b50606082015181600301908161079b9190610dd8565b5060808201518160040190816107b19190610dd8565b509050503373ffffffffffffffffffffffffffffffffffffffff167ffa36a0163de2c7371e9fc6a81fff5cdce4e62bf2f00f210e2c7806f7c52278978686868686604051610803959493929190610932565b60405180910390a25050505050565b5f604051905090565b5f80fd5b5f80fd5b5f73ffffffffffffffffffffffffffffffffffffffff82169050919050565b5f61084c82610823565b9050919050565b61085c81610842565b8114610866575f80fd5b50565b5f8135905061087781610853565b92915050565b5f602082840312156108925761089161081b565b5b5f61089f84828501610869565b91505092915050565b5f81519050919050565b5f82825260208201905092915050565b5f5b838110156108df5780820151818401526020810190506108c4565b5f8484015250505050565b5f601f19601f8301169050919050565b5f610904826108a8565b61090e81856108b2565b935061091e8185602086016108c2565b610927816108ea565b840191505092915050565b5f60a0820190508181035f83015261094a81886108fa565b9050818103602083015261095e81876108fa565b9050818103604083015261097281866108fa565b9050818103606083015261098681856108fa565b9050818103608083015261099a81846108fa565b90509695505050505050565b5f80fd5b5f80fd5b7f4e487b71000000000000000000000000000000000000000000000000000000005f52604160045260245ffd5b6109e4826108ea565b810181811067ffffffffffffffff82111715610a0357610a026109ae565b5b80604052505050565b5f610a15610812565b9050610a2182826109db565b919050565b5f67ffffffffffffffff821115610a4057610a3f6109ae565b5b610a49826108ea565b9050602081019050919050565b828183375f83830152505050565b5f610a76610a7184610a26565b610a0c565b905082815260208101848484011115610a9257610a916109aa565b5b610a9d848285610a56565b509392505050565b5f82601f830112610ab957610ab86109a6565b5b8135610ac9848260208601610a64565b91505092915050565b5f805f805f60a08688031215610aeb57610aea61081b565b5b5f86013567ffffffffffffffff811115610b0857610b0761081f565b5b610b1488828901610aa5565b955050602086013567ffffffffffffffff811115610b3557610b3461081f565b5b610b4188828901610aa5565b945050604086013567ffffffffffffffff811115610b6257610b6161081f565b5b610b6e88828901610aa5565b935050606086013567ffffffffffffffff811115610b8f57610b8e61081f565b5b610b9b88828901610aa5565b925050608086013567ffffffffffffffff811115610bbc57610bbb61081f565b5b610bc888828901610aa5565b9150509295509295909350565b7f4e487b71000000000000000000000000000000000000000000000000000000005f52602260045260245ffd5b5f6002820490506001821680610c1957607f821691505b602082108103610c2c57610c2b610bd5565b5b50919050565b5f819050815f5260205f209050919050565b5f6020601f8301049050919050565b5f82821b905092915050565b5f60088302610c8e7fffffffffffffffffffffffffffffffffffffffffffffffffffffffffffffffff82610c53565b610c988683610c53565b95508019841693508086168417925050509392505050565b5f819050919050565b5f819050919050565b5f610cdc610cd7610cd284610cb0565b610cb9565b610cb0565b9050919050565b5f819050919050565b610cf583610cc2565b610d09610d0182610ce3565b848454610c5f565b825550505050565b5f90565b610d1d610d11565b610d28818484610cec565b505050565b5b81811015610d4b57610d405f82610d15565b600181019050610d2e565b5050565b601f821115610d9057610d6181610c32565b610d6a84610c44565b81016020851015610d79578190505b610d8d610d8585610c44565b830182610d2d565b50505b505050565b5f82821c905092915050565b5f610db05f1984600802610d95565b1980831691505092915050565b5f610dc88383610da1565b9150826002028217905092915050565b610de1826108a8565b67ffffffffffffffff811115610dfa57610df96109ae565b5b610e048254610c02565b610e0f828285610d4f565b5f60209050601f831160018114610e40575f8415610e2e578287015190505b610e388582610dbd565b865550610e9f565b601f198416610e4e86610c32565b5f5b82811015610e7557848901518255600182019150602085019450602081019050610e50565b86831015610e925784890151610e8e601f891682610da1565b8355505b6001600288020188555050505b50505050505056fea26469706673582212203b3459c2de7fb60d4a9898ef94e7cf00ce73b25ed6543c4a7c046f929ffba37f64736f6c63430008150033",
  "immutableReferences": {},
  "source": "// SPDX-License-Identifier: MIT\npragma solidity ^0.8.0;\n\ncontract PetAdoption {\n    struct Pet {\n        string name;\n        string details;\n        string age;\n        string petAddress;\n        string species;\n    }\n\n    mapping(address => Pet) public pets;\n\n    event PetAdopted(address indexed owner, string name, string details, string age, string petAddress, string species);\n\n    function adoptPet(string memory _name, string memory _details, string memory _age, string memory _petAddress, string memory _species) public {\n        pets[msg.sender] = Pet(_name, _details, _age, _petAddress, _species);\n        emit PetAdopted(msg.sender, _name, _details, _age, _petAddress, _species);\n    }\n\n    function getPet(address owner) public view returns (string memory, string memory, string memory, string memory, string memory) {\n        Pet memory pet = pets[owner];\n        return (pet.name, pet.details, pet.age, pet.petAddress, pet.species);\n    }\n}\n",
  "sourcePath": "/Users/Riddhika/Desktop/Petcare/pet-adoption/contracts/PetAdoption.sol",
  "compiler": {
    "name": "solc",
    "version": "0.8.21+commit.d9974bed.Emscripten.clang"
  },
  "schemaVersion": "3.4.16",
  "updatedAt": "2024-06-04T11:54:25.357Z",
  "devdoc": {
    "kind": "dev",
    "methods": {},
    "version": 1
  },
  "userdoc": {
    "kind": "user",
    "methods": {},
    "version": 1
  }
}